{
  "_format": "hh-sol-artifact-1",
  "contractName": "GravatarRegistry",
  "sourceName": "contracts/GravatarRegistry/GravatarRegistry.sol",
  "abi": [
    {
      "anonymous": false,
      "inputs": [
        {
          "indexed": false,
          "internalType": "uint256",
          "name": "id",
          "type": "uint256"
        },
        {
          "indexed": false,
          "internalType": "address",
          "name": "owner",
          "type": "address"
        },
        {
          "indexed": false,
          "internalType": "string",
          "name": "displayName",
          "type": "string"
        },
        {
          "indexed": false,
          "internalType": "string",
          "name": "imageUrl",
          "type": "string"
        }
      ],
      "name": "NewGravatar",
      "type": "event"
    },
    {
      "anonymous": false,
      "inputs": [
        {
          "indexed": false,
          "internalType": "uint256",
          "name": "id",
          "type": "uint256"
        },
        {
          "indexed": false,
          "internalType": "address",
          "name": "owner",
          "type": "address"
        },
        {
          "indexed": false,
          "internalType": "string",
          "name": "displayName",
          "type": "string"
        },
        {
          "indexed": false,
          "internalType": "string",
          "name": "imageUrl",
          "type": "string"
        }
      ],
      "name": "UpdatedGravatar",
      "type": "event"
    },
    {
      "inputs": [
        {
          "internalType": "string",
          "name": "_displayName",
          "type": "string"
        },
        {
          "internalType": "string",
          "name": "_imageUrl",
          "type": "string"
        }
      ],
      "name": "createGravatar",
      "outputs": [],
      "stateMutability": "nonpayable",
      "type": "function"
    },
    {
      "inputs": [
        {
          "internalType": "address",
          "name": "owner",
          "type": "address"
        }
      ],
      "name": "getGravatar",
      "outputs": [
        {
          "internalType": "string",
          "name": "",
          "type": "string"
        },
        {
          "internalType": "string",
          "name": "",
          "type": "string"
        }
      ],
      "stateMutability": "view",
      "type": "function"
    },
    {
      "inputs": [
        {
          "internalType": "uint256",
          "name": "",
          "type": "uint256"
        }
      ],
      "name": "gravatarToOwner",
      "outputs": [
        {
          "internalType": "address",
          "name": "",
          "type": "address"
        }
      ],
      "stateMutability": "view",
      "type": "function"
    },
    {
      "inputs": [
        {
          "internalType": "uint256",
          "name": "",
          "type": "uint256"
        }
      ],
      "name": "gravatars",
      "outputs": [
        {
          "internalType": "address",
          "name": "owner",
          "type": "address"
        },
        {
          "internalType": "string",
          "name": "displayName",
          "type": "string"
        },
        {
          "internalType": "string",
          "name": "imageUrl",
          "type": "string"
        }
      ],
      "stateMutability": "view",
      "type": "function"
    },
    {
      "inputs": [
        {
          "internalType": "address",
          "name": "",
          "type": "address"
        }
      ],
      "name": "ownerToGravatar",
      "outputs": [
        {
          "internalType": "uint256",
          "name": "",
          "type": "uint256"
        }
      ],
      "stateMutability": "view",
      "type": "function"
    },
    {
      "inputs": [
        {
          "internalType": "string",
          "name": "_imageUrl",
          "type": "string"
        }
      ],
      "name": "updateGravatarImage",
      "outputs": [],
      "stateMutability": "nonpayable",
      "type": "function"
    },
    {
      "inputs": [
        {
          "internalType": "string",
          "name": "_displayName",
          "type": "string"
        }
      ],
      "name": "updateGravatarName",
      "outputs": [],
      "stateMutability": "nonpayable",
      "type": "function"
    }
  ],
  "bytecode": "0x608060405234801561001057600080fd5b50611740806100206000396000f3fe608060405234801561001057600080fd5b506004361061007c5760003560e01c8063a5ac36341161005b578063a5ac3634146100fe578063b18588fb1461012e578063cdb3344a1461014a578063d5ce24ed146101665761007c565b806281d6e514610081578063359c1f721461009d57806388d0d391146100ce575b600080fd5b61009b60048036038101906100969190610c93565b610198565b005b6100b760048036038101906100b29190610d3e565b610307565b6040516100c5929190610dfb565b60405180910390f35b6100e860048036038101906100e39190610e68565b6104c6565b6040516100f59190610ea4565b60405180910390f35b61011860048036038101906101139190610d3e565b6104f9565b6040516101259190610ece565b60405180910390f35b61014860048036038101906101439190610c93565b610511565b005b610164600480360381019061015f9190610ee9565b610736565b005b610180600480360381019061017b9190610e68565b6109f8565b60405161018f93929190610f6a565b60405180910390f35b6000600260003373ffffffffffffffffffffffffffffffffffffffff1673ffffffffffffffffffffffffffffffffffffffff168152602001908152602001600020540361021a576040517f08c379a000000000000000000000000000000000000000000000000000000000815260040161021190611021565b60405180910390fd5b60006001600260003373ffffffffffffffffffffffffffffffffffffffff1673ffffffffffffffffffffffffffffffffffffffff168152602001908152602001600020546102689190611070565b90508282600083815481106102805761027f6110a4565b5b9060005260206000209060030201600201918261029e929190611319565b507f76571b7a897a1509c641587568218a290018fbdc8b9a724f17b77ff0eec22c0c8133600084815481106102d6576102d56110a4565b5b906000526020600020906003020160010186866040516102fa9594939291906114a9565b60405180910390a1505050565b60608060006001600260008673ffffffffffffffffffffffffffffffffffffffff1673ffffffffffffffffffffffffffffffffffffffff168152602001908152602001600020546103589190611070565b90506000818154811061036e5761036d6110a4565b5b906000526020600020906003020160010160008281548110610393576103926110a4565b5b90600052602060002090600302016002018180546103b09061113c565b80601f01602080910402602001604051908101604052809291908181526020018280546103dc9061113c565b80156104295780601f106103fe57610100808354040283529160200191610429565b820191906000526020600020905b81548152906001019060200180831161040c57829003601f168201915b5050505050915080805461043c9061113c565b80601f01602080910402602001604051908101604052809291908181526020018280546104689061113c565b80156104b55780601f1061048a576101008083540402835291602001916104b5565b820191906000526020600020905b81548152906001019060200180831161049857829003601f168201915b505050505090509250925050915091565b60016020528060005260406000206000915054906101000a900473ffffffffffffffffffffffffffffffffffffffff1681565b60026020528060005260406000206000915090505481565b6000600260003373ffffffffffffffffffffffffffffffffffffffff1673ffffffffffffffffffffffffffffffffffffffff1681526020019081526020016000205403610593576040517f08c379a000000000000000000000000000000000000000000000000000000000815260040161058a90611021565b60405180910390fd5b60006001600260003373ffffffffffffffffffffffffffffffffffffffff1673ffffffffffffffffffffffffffffffffffffffff168152602001908152602001600020546105e19190611070565b9050610699600082815481106105fa576105f96110a4565b5b906000526020600020906003020160010180546106169061113c565b80601f01602080910402602001604051908101604052809291908181526020018280546106429061113c565b801561068f5780601f106106645761010080835404028352916020019161068f565b820191906000526020600020905b81548152906001019060200180831161067257829003601f168201915b5050505050610b62565b8282600083815481106106af576106ae6110a4565b5b906000526020600020906003020160010191826106cd929190611319565b507f76571b7a897a1509c641587568218a290018fbdc8b9a724f17b77ff0eec22c0c8133858560008681548110610707576107066110a4565b5b90600052602060002090600302016002016040516107299594939291906114fe565b60405180910390a1505050565b6000600260003373ffffffffffffffffffffffffffffffffffffffff1673ffffffffffffffffffffffffffffffffffffffff16815260200190815260200160002054146107b8576040517f08c379a00000000000000000000000000000000000000000000000000000000081526004016107af9061159f565b60405180910390fd5b600060405180606001604052803373ffffffffffffffffffffffffffffffffffffffff16815260200186868080601f016020809104026020016040519081016040528093929190818152602001838380828437600081840152601f19601f82011690508083019250505050505050815260200184848080601f016020809104026020016040519081016040528093929190818152602001838380828437600081840152601f19601f82011690508083019250505050505050815250908060018154018082558091505060019003906000526020600020906003020160009091909190915060008201518160000160006101000a81548173ffffffffffffffffffffffffffffffffffffffff021916908373ffffffffffffffffffffffffffffffffffffffff16021790555060208201518160010190816108f891906115bf565b50604082015181600201908161090e91906115bf565b505050600080805490509050336001600083815260200190815260200160002060006101000a81548173ffffffffffffffffffffffffffffffffffffffff021916908373ffffffffffffffffffffffffffffffffffffffff16021790555080600260003373ffffffffffffffffffffffffffffffffffffffff1673ffffffffffffffffffffffffffffffffffffffff168152602001908152602001600020819055507f9ab3aefb2ba6dc12910ac1bce4692cf5c3c0d06cff16327c64a3ef78228b130b8133878787876040516109e996959493929190611691565b60405180910390a15050505050565b60008181548110610a0857600080fd5b90600052602060002090600302016000915090508060000160009054906101000a900473ffffffffffffffffffffffffffffffffffffffff1690806001018054610a519061113c565b80601f0160208091040260200160405190810160405280929190818152602001828054610a7d9061113c565b8015610aca5780601f10610a9f57610100808354040283529160200191610aca565b820191906000526020600020905b815481529060010190602001808311610aad57829003601f168201915b505050505090806002018054610adf9061113c565b80601f0160208091040260200160405190810160405280929190818152602001828054610b0b9061113c565b8015610b585780601f10610b2d57610100808354040283529160200191610b58565b820191906000526020600020905b815481529060010190602001808311610b3b57829003601f168201915b5050505050905083565b610bf881604051602401610b7691906116e8565b6040516020818303038152906040527f41304fac000000000000000000000000000000000000000000000000000000007bffffffffffffffffffffffffffffffffffffffffffffffffffffffff19166020820180517bffffffffffffffffffffffffffffffffffffffffffffffffffffffff8381831617835250505050610bfb565b50565b60008151905060006a636f6e736f6c652e6c6f679050602083016000808483855afa5050505050565b600080fd5b600080fd5b600080fd5b600080fd5b600080fd5b60008083601f840112610c5357610c52610c2e565b5b8235905067ffffffffffffffff811115610c7057610c6f610c33565b5b602083019150836001820283011115610c8c57610c8b610c38565b5b9250929050565b60008060208385031215610caa57610ca9610c24565b5b600083013567ffffffffffffffff811115610cc857610cc7610c29565b5b610cd485828601610c3d565b92509250509250929050565b600073ffffffffffffffffffffffffffffffffffffffff82169050919050565b6000610d0b82610ce0565b9050919050565b610d1b81610d00565b8114610d2657600080fd5b50565b600081359050610d3881610d12565b92915050565b600060208284031215610d5457610d53610c24565b5b6000610d6284828501610d29565b91505092915050565b600081519050919050565b600082825260208201905092915050565b60005b83811015610da5578082015181840152602081019050610d8a565b60008484015250505050565b6000601f19601f8301169050919050565b6000610dcd82610d6b565b610dd78185610d76565b9350610de7818560208601610d87565b610df081610db1565b840191505092915050565b60006040820190508181036000830152610e158185610dc2565b90508181036020830152610e298184610dc2565b90509392505050565b6000819050919050565b610e4581610e32565b8114610e5057600080fd5b50565b600081359050610e6281610e3c565b92915050565b600060208284031215610e7e57610e7d610c24565b5b6000610e8c84828501610e53565b91505092915050565b610e9e81610d00565b82525050565b6000602082019050610eb96000830184610e95565b92915050565b610ec881610e32565b82525050565b6000602082019050610ee36000830184610ebf565b92915050565b60008060008060408587031215610f0357610f02610c24565b5b600085013567ffffffffffffffff811115610f2157610f20610c29565b5b610f2d87828801610c3d565b9450945050602085013567ffffffffffffffff811115610f5057610f4f610c29565b5b610f5c87828801610c3d565b925092505092959194509250565b6000606082019050610f7f6000830186610e95565b8181036020830152610f918185610dc2565b90508181036040830152610fa58184610dc2565b9050949350505050565b7f4e6f206772617661746172207265676973746572656420666f7220746869732060008201527f6164647265737300000000000000000000000000000000000000000000000000602082015250565b600061100b602783610d76565b915061101682610faf565b604082019050919050565b6000602082019050818103600083015261103a81610ffe565b9050919050565b7f4e487b7100000000000000000000000000000000000000000000000000000000600052601160045260246000fd5b600061107b82610e32565b915061108683610e32565b925082820390508181111561109e5761109d611041565b5b92915050565b7f4e487b7100000000000000000000000000000000000000000000000000000000600052603260045260246000fd5b600082905092915050565b7f4e487b7100000000000000000000000000000000000000000000000000000000600052604160045260246000fd5b7f4e487b7100000000000000000000000000000000000000000000000000000000600052602260045260246000fd5b6000600282049050600182168061115457607f821691505b6020821081036111675761116661110d565b5b50919050565b60008190508160005260206000209050919050565b60006020601f8301049050919050565b600082821b905092915050565b6000600883026111cf7fffffffffffffffffffffffffffffffffffffffffffffffffffffffffffffffff82611192565b6111d98683611192565b95508019841693508086168417925050509392505050565b6000819050919050565b600061121661121161120c84610e32565b6111f1565b610e32565b9050919050565b6000819050919050565b611230836111fb565b61124461123c8261121d565b84845461119f565b825550505050565b600090565b61125961124c565b611264818484611227565b505050565b5b818110156112885761127d600082611251565b60018101905061126a565b5050565b601f8211156112cd5761129e8161116d565b6112a784611182565b810160208510156112b6578190505b6112ca6112c285611182565b830182611269565b50505b505050565b600082821c905092915050565b60006112f0600019846008026112d2565b1980831691505092915050565b600061130983836112df565b9150826002028217905092915050565b61132383836110d3565b67ffffffffffffffff81111561133c5761133b6110de565b5b611346825461113c565b61135182828561128c565b6000601f831160018114611380576000841561136e578287013590505b61137885826112fd565b8655506113e0565b601f19841661138e8661116d565b60005b828110156113b657848901358255600182019150602085019450602081019050611391565b868310156113d357848901356113cf601f8916826112df565b8355505b6001600288020188555050505b50505050505050565b600081546113f68161113c565b6114008186610d76565b9450600182166000811461141b576001811461143157611464565b60ff198316865281151560200286019350611464565b61143a8561116d565b60005b8381101561145c5781548189015260018201915060208101905061143d565b808801955050505b50505092915050565b82818337600083830152505050565b60006114888385610d76565b935061149583858461146d565b61149e83610db1565b840190509392505050565b60006080820190506114be6000830188610ebf565b6114cb6020830187610e95565b81810360408301526114dd81866113e9565b905081810360608301526114f281848661147c565b90509695505050505050565b60006080820190506115136000830188610ebf565b6115206020830187610e95565b818103604083015261153381858761147c565b9050818103606083015261154781846113e9565b90509695505050505050565b7f4f6e6520477261766174617220706572206164647265737320616c6c6f776564600082015250565b6000611589602083610d76565b915061159482611553565b602082019050919050565b600060208201905081810360008301526115b88161157c565b9050919050565b6115c882610d6b565b67ffffffffffffffff8111156115e1576115e06110de565b5b6115eb825461113c565b6115f682828561128c565b600060209050601f8311600181146116295760008415611617578287015190505b61162185826112fd565b865550611689565b601f1984166116378661116d565b60005b8281101561165f5784890151825560018201915060208501945060208101905061163a565b8683101561167c5784890151611678601f8916826112df565b8355505b6001600288020188555050505b505050505050565b60006080820190506116a66000830189610ebf565b6116b36020830188610e95565b81810360408301526116c681868861147c565b905081810360608301526116db81848661147c565b9050979650505050505050565b600060208201905081810360008301526117028184610dc2565b90509291505056fea2646970667358221220cfa1868ed357c34d281d399fded70980bea67e5793e3c3338f6f404aa9f5883c64736f6c63430008110033",
  "linkReferences": {},
  "deployedLinkReferences": {}
}